:020000040800F2
:1000000060040020A90100083F1100083B1100080E
:100010003D1100089D070008391600080000000087
:10002000000000000000000000000000B311000804
:100030009F07000800000000B1110008B51100087A
:10004000C3010008C3010008C3010008C301000880
:10005000C3010008C3010008A1070008C30100088C
:10006000C3010008C3010008C3010008C301000860
:10007000C3010008C3010008C3010008C301000850
:10008000C3010008C3010008C3010008000000000C
:10009000000000000000000000000000C301000894
:1000A000C3010008C3010008C3010008C301000820
:1000B0008D120008C3010008C3010008C301000835
:1000C000C3010008C3010008C3010008C301000800
:1000D000C3010008C3010008C301000800000000BC
:1000E000CD070008C3010008C3010008000000009C
:1000F000000000000000000000000000C301000834
:1001000000000000C3010008C3010008C30100088B
:1001100000000000000000000000000000000000DF
:10012000C3010008C3010008C3010008C30100089F
:10013000C3010008000000000000000000000000F3
:10014000000000000000000000000000C3010008E3
:10015000C3010008C3010008C3010008C30100086F
:10016000C3010008C30100080000000000000000F7
:10017000000000000000000000000000000000007F
:1001800000000000C30100080000000000000000A3
:10019000C3010008DFF80CD000F028FA004800473F
:1001A000A51600086004002006488047064800475E
:1001B000FEE7FEE7FEE7FEE7FEE7FEE7FEE7FEE717
:1001C000FEE7FEE739120008950100082DE9F05F0F
:1001D0000546002092469B468846064681464024B6
:1001E0001BE0284641464746224600F07FF9534629
:1001F0005A46C01A914110D311461846224600F0C3
:1002000066F92D1A67EB01084F46224601200021AE
:1002100000F05DF917EB00094E41201EA4F1010426
:10022000DFDC484631462A464346BDE8F09F2DE9CB
:10023000FE4F804681EA0300C00F0C46009021F07B
:10024000004123F00045B8EB0200A94105D2404629
:10025000214690461C460B46024623F000401043C0
:1002600047D0270DC7F30A00C3F30A510290401A82
:10027000019040286BDAC3F3130040F4801B009810
:10028000924620B10023D2EB030A63EB0B0B0198DB
:100290005946C0F14002504600F019F906460D4695
:1002A00050465946019A00F031F910EB08006141BF
:1002B000002487EA115284EAE7731A4340D0009A77
:1002C00062B3019A012A4FEA075215DC001B61EB69
:1002D00002014FF0004202EA0752CDE90042001C41
:1002E00041F5801132462B4600F031F903B0BDE8EC
:1002F000F08F40462146F9E7001B61EB0201001C2C
:1003000041F5801300185B412018A2F5001747EB58
:10031000030140EAD570B6196D4111E06D084FEA4E
:10032000360645EAC0754FEA0752001B61EB020131
:10033000001C41F5801149084FEA30000019514175
:1003400032462B4603B0BDE8F04F00F0F1B80098FC
:10035000012240000023D0EB020263EBE07300981F
:1003600021464FEAE074B8EB000061EB0401E9E7D5
:1003700083F000435BE781F0004158E72DE9FE4F31
:1003800081EA030404F0004421F0004100944FF09E
:10039000000B23F0004350EA01045ED052EA03044C
:1003A0005BD0C3F30A54C1F30A552C44A4F2F334CE
:1003B0000194A0FB0254C1F3130141F48011C3F373
:1003C000130343F4801301FB024400FB034E840A31
:1003D000970A44EA815447EA8357A4FB07680295C9
:1003E0008D0A05FB07854FEA932C04FB0C54270567
:1003F000029D4FEA065847EA1637B5EB08056EEB43
:10040000070C870E920E47EA811742EA8312A7FB78
:100410000201B6EB0B0164EB00042B0D43EA0C3335
:100420005E1844EB1C50DA465146E7FB0201C5F367
:1004300013044FEA0B3343EA14534FEA0432019C8E
:1004400043EA0603A4F10C040294009CCDE900B435
:1004500000F07DF803B0BDE8F08F00200146F9E719
:100460000EB5C10F80EAE0700844CA07002140F2CF
:1004700033438DE80E000A460B4600F068F803B0DF
:1004800000BD0EB540F2334102910021CDE90011CB
:100490000A460B4600F05BF803B000BDC1F30A52F8
:1004A00010B5C1F3130140F2FF3341F480119A42B9
:1004B00001DA002010BD40F233439A42A2F23342E7
:1004C00003DC524200F012F810BD904010BD202A0B
:1004D00004DB203A00FA02F1002070479140C2F19B
:1004E000200320FA03F3194390407047202A04DBCD
:1004F000203A21FA02F00021704721FA02F3D0409D
:10050000C2F120029140084319467047202A06DBB9
:10051000CB17203A41FA02F043EAE07306E041FAD1
:1005200002F3D040C2F120029140084319467047BF
:1005300010B5141E73F1000408DA401C41F10001EB
:1005400092185B411A4301D120F0010010BD2DE942
:10055000F04D92469B4611B1B1FA81F202E0B0FA39
:1005600080F220329046FFF7B2FF04460F4640EA81
:100570000A0041EA0B0153465A46084313D011467C
:1005800053EA010019D0C8F140025046FFF7AEFF10
:1005900005460E46504659464246FFF798FF084327
:1005A00005D0012004E020463946BDE8F08D00204A
:1005B000054346EAE0762C4337430A986305E40A8C
:1005C000A0EB08000022FD0A44EA47540A3002D595
:1005D00000200146E9E7010510196941DDE90845F8
:1005E00000196941BDE8F04DA2E70000064C074D37
:1005F00006E0E06840F0010394E8070098471034F3
:10060000AC42F6D3FFF7CAFD681700088817000848
:1006100010B5012805D0022803D0032801D00120FD
:1006200010BD1D490A6842F001020A601A491431DE
:100630000A6842F480420A6018490A6822F00302FC
:100640000A6017490A680A60164A012805D0111D78
:10065000022807D0032819D008E0106840F00100F4
:10066000106003E0086840F0010008600D48083899
:10067000016841F00101016001220221062000F021
:10068000D9F9062000F0CBF9002010BD106840F029
:1006900001001060E6E70000303802400000024030
:1006A00008380140083C014010B5012805D0022857
:1006B00003D0032801D0012010BD1E490A6842F072
:1006C00004020A601B4914310A6842F480420A603D
:1006D00019490A6822F040620A6018490A6842F023
:1006E00020020A60164A012805D0111D022807D0F1
:1006F000032819D008E0106840F40050106003E0AF
:10070000086840F4005008600D480838016841F45A
:100710000051016000220221282000F08BF92820DE
:1007200000F07DF9002010BD106840F4005010600A
:10073000E6E700003038024000080240143801406B
:10074000083C01400F4810B5026886B0002142F015
:100750000102026000680C4C00F0010005902020AE
:1007600000900120CDE90101022003906946204656
:1007700000F046F800222021204600F009F906B0DA
:1007800010BD00003038024000000240012220214C
:10079000014800F0FDB8000000000240FEE770478D
:1007A00007480168C9070AD0016841F001010160EA
:1007B00004490020087004490888401C08807047DC
:1007C000143C01400D000020100000200748016883
:1007D00089040AD5016841F40051016004490020F0
:1007E000087004490888401C08807047143C014088
:1007F0000C0000200E0000200020FFF7C7FFFEE7DE
:100800002DE9F84FDFF860B100224FF001084FF0FA
:10081000030A4FF00F090BF1040E00BF0B6808FA32
:1008200002F42340A3426ED14D68022D01D0122D57
:100830000ED1D50800EB850CDCF820505607F70EDA
:1008400009FA07F6B5430E69BE402E43CCF8206086
:10085000066855000F790AFA05FC07F0030726EA37
:100860000C06AF40374307604E68012E05D0022EBC
:1008700003D0112E01D0122E0ED18668CF6826EA41
:100880000C06AF40374387604668A6430C79C4F333
:100890000014944034434460C6688C6826EA0C0611
:1008A000AC403443C4604C68E40056D52F4C2568F6
:1008B00045F480452560246822F0030504F4804453
:1008C00000942B4C2E19D6F8084895072F0F09FADB
:1008D00007F5AC43274DA84201D1002515E0264D70
:1008E000A84201D1012510E0244DA84201D10225E2
:1008F0000BE0234DA84201D1032506E0214DA8427B
:1009000002D1042501E028E00725BD402543C6F8B3
:100910000858DBF800405D464E689C43F60300D55E
:100920001C432C60DEF8004075464E689C43B603BD
:1009300000D51C432C600C4D08352C684E689C4338
:10094000F60200D51C432C60074D0C352C684E6810
:100950009C43B60200D51C432C60521C102AFFF4A5
:100960005DAFBDE8F88F0000003C01404438024014
:100970000030014000000240000402400008024034
:10098000000C02400010024042694A404261704738
:100990000AB1816170470904FBE7000001488068E3
:1009A00070470000000000200B4810B5016841F4BA
:1009B00000710160016841F480610160016841F4E7
:1009C00080710160032000F055F80F2000F006F858
:1009D00000F024F8002010BD003C024070B50D4D21
:1009E00004464FF47A712878B1FBF0F00A4909689F
:1009F000B1FBF0F000F0C6FA48B9102C07D2002283
:100A00002146501E00F016F800206C6070BD0120D9
:100A100070BD00000000002014000020704700F0AE
:100A20001F02012191404009800000F1E020C0F840
:100A300000117047F0B40E4B1B680C46C3F3022341
:100A4000C3F10705042D00D90425191D072901D27A
:100A5000002300E0DB1E012606FA05F1491E2140B5
:100A600099409E40761E16403143F0BC00F068BBB2
:100A70000CED00E0064900F0070208684FF6FF039E
:100A8000184040EA0220034A104308607047000003
:100A90000CED00E00000FA052DE9F0470E460500D8
:100AA00065D0DFF81481D8F80000F7B200F00F002D
:100AB000B04207D288F80070D8F8000000F00F00AC
:100AC000B04254D128683D4C810712D5400703D568
:100AD000206840F4E05020602878000703D52068A3
:100AE00040F4604020602068A96820F0F0000843CE
:100AF00020602878C0072DD030496868083901285F
:100B000012D0022813D0032811D0096889070029C0
:100B10002DDA216821F0030101432160FFF73EFF38
:100B2000814641F2883A0EE009688903EFE70968D7
:100B30008901ECE7FFF732FFA0EB0901514502D92B
:100B40000320BDE8F0872068696800F00C00B0EB76
:100B5000810FEFD1D8F80010404601F00F01B142EB
:100B600007D90770006800F00F00B04201D00120E3
:100B7000E7E72878400705D52068E96820F4E050C9
:100B8000084320602878000706D52068296920F4EA
:100B9000604040EAC100206000F036F82168084A51
:100BA000C1F30311515CC840064908600F20FFF7EC
:100BB00015FF0020C5E70000003C02400838024055
:100BC000501700081400002004480549006809680F
:100BD000044AC1F38221515CC840704714000020D0
:100BE0000838024060170008044805490068096891
:100BF000044AC1F34231515CC840704714000020E0
:100C00000838024060170008154810B5006810F059
:100C10000C02144813D04110042A0FD0082A0ED118
:100C20000F4C241F2268236802F03F025B0207D5A5
:100C30002068C0F38810A0FB010106E0084610BD43
:100C40002168C1F38811A1FB00010023FFF7BEFA60
:100C50002168C1F30141491C4900B0FBF1F010BD0E
:100C6000083802400024F4002DE9F84F050076D042
:100C70002878DFF8F8B2BE4CC00749D0DBF8001086
:100C80005846C1F38101012908D00068C0F38100F2
:100C900002280AD1201D0068400206D52068800382
:100CA00036D568680028E2D032E06868B0F5803F49
:100CB00010D0B0F5A02F206810D020F48030206034
:100CC000206820F4802020606868A0B1FFF766FEED
:100CD00006460CE0206840F48030F4E740F48020C1
:100CE0002060F7E7FFF75AFE801B642873D820685E
:100CF0008003F7D50CE0FFF751FE064605E000BF84
:100D0000FFF74CFE801B6428F0D820688003F7D4DE
:100D10002878DFF8608280074FF000093ED5DBF8C5
:100D20000010584611F00C0F09D00068C0F3810084
:100D300002280BD18D48001F0068400206D42068AD
:100D4000800715D5E868012809D111E0E868B8B135
:100D50000120C8F80000FFF721FE064605E002E189
:100D6000FFF71CFE801B0228C0D820688007F7D53B
:100D70002068296920F0F80040EAC10020600DE0F9
:100D8000C8F80090FFF70AFE064604E0FFF706FEEB
:100D9000801B02281FD820688007F7D42878000716
:100DA00022D5724E744869696C3671B101210160B7
:100DB000FFF7F4FD074604E0FFF7F0FDC01B022833
:100DC00009D830688007F7D50EE0C0F80090FFF72B
:100DD000E5FD074605E083E0FFF7E0FDC01B0228C4
:100DE0007ED830688007F7D42878400768D5DFF8C8
:100DF0007CA100270AF1380ADAF80000C0000BD401
:100E0000DAF8001041F08051CAF80010DAF800005A
:100E1000012700F080500090584E3068C00510D473
:100E2000306840F480703060FFF7B8FD009005E056
:100E3000FFF7B4FD0099401A022851D83068C00568
:100E4000F6D54A4EA868683601280FD005283068C4
:100E500010D020F001003060306820F004003060D5
:100E6000A868B8B1FFF79AFD00900FE0306840F035
:100E70000100F4E740F004003060F7E7FFF78EFD73
:100E80000099411A41F28830814264D83068800765
:100E9000F4D50EE0FFF782FD009007E0FFF77EFD3E
:100EA0000099411A41F28830814254D83068800755
:100EB000F4D42FB1DAF8001021F08051CAF80010F4
:100EC000A869C0B3DBF80010C1F3810102294AD040
:100ED0000228484607D0C8F86000FFF75FFD00E031
:100EE00039E005463AE04746C8F86000FFF756FD8E
:100EF000064604E0FFF752FD801B02282BD820682D
:100F00008001F7D4D5E907010843A96A1C4A4908BA
:100F100002EB01416A6A41EA8211084395F82C10FC
:100F200040EA01611148001F016001203866FFF7A7
:100F300035FD054605E014E0FFF730FD401B0228B3
:100F400009D820688001F7D50BE000BFFFF726FD28
:100F5000401B022802D90320BDE8F88F20688001D9
:100F6000F4D40020F8E70120F6E70000083802403A
:100F70000038024000004742800E474200700040A7
:100F80000000FFFF10B5401EB0F1807F01D30120AB
:100F900010BD4FF0E02460610F21601700F0D0F821
:100FA0000020A06107202061002010BD70B5040062
:100FB00004D094F83900002510B106E0012070BD7E
:100FC00084F83850204600F023F8242084F83900B3
:100FD0002068C16821F40051C160204600F0A4F9E6
:100FE0002068016921F4904101612068416921F084
:100FF0002A0141612068C16841F40051C160E56384
:10100000202084F8390084F83A00002070BD0000E8
:1010100030B5194887B0016841F0010101600168ED
:1010200001F001010591016841F0010101600068D2
:1010300000F00100059010481030016841F40031C3
:1010400001600068012100F4003005900420009048
:101050000220CDE901010724CDE90304074D6946CB
:101060002846FFF7CDFB08200090694604942846E7
:10107000FFF7C6FB07B030BD303802400000024029
:101080002DE9F843044690F839001F4616460D46F0
:10109000202850D1A5B19EB194F8380001284AD03B
:1010A000012084F838004FF00008C4F83C8021206B
:1010B00084F83900FFF772FCA6848146E68426E0B6
:1010C0000120BDE8F883E08C401EE084A0684B4618
:1010D000B0F5805F4FF000024FF08001204600978E
:1010E00003D000F077FAE8B90DE000F073FAC8B960
:1010F00028882168C0F308004860206908B16D1C89
:1011000005E0AD1C03E0216815F8010B4860E08C98
:101110000028D8D14B46002240212046009700F0FD
:1011200059FA08B10320CCE7202084F8390084F86C
:1011300038800020C5E70220C3E7FEE7FEE77047DE
:101140000907090E002806DA00F00F0000F1E02080
:1011500080F8141D704700F1E02080F800147047FB
:1011600070B5A0F2D9400A0C85B22DED028B62F366
:101170000F048EB22846FFF784F99FED0B1B53EC4A
:10118000112BFFF7FBF841EC180BA81BFFF768F9D0
:1011900053EC182BFFF74BF8FFF780F900EB1440E6
:1011A000BDEC028B80B270BD000000000000E03F8B
:1011B000704770477047000030B51D4893B0002459
:1011C000016841F080510160006800F0805011908A
:1011D0001848016821F4404141F400410160006871
:1011E000022500F44040119001200390102000954A
:1011F00006950490CDE907404FF4A87009900420AB
:101200000A9007200B906846FFF72EFD60B90F206B
:10121000CDE90C05E802CDE90E4002210CA810949E
:10122000FFF73AFC002801D0FFF7E6FA13B030BD13
:1012300040380240007000401048016841F47001DD
:1012400001600F48016841F0010101600C4A002172
:101250000832116002680B4B1A400260031D0A4AF3
:101260001A60026822F48022026005480C30016096
:1012700002495806803908607047000088ED00E098
:1012800000380240FFFFF6FE103000244FF080408F
:10129000016921F00101016102490888401C0880B0
:1012A000704700001200002010B5B0F5803F01D358
:1012B000012010BD0E490A6842F001020A600022B6
:1012C00009064A6242F2CF028A62C862086840F0A8
:1012D00001000860C86840F00100C86003220221D4
:1012E0000620FFF7A7FB1C20FFF799FB002010BD8D
:1012F000403802400B4810B5094901604FF41651BF
:10130000416000218160C1600C220161C0E90521BA
:10131000C161FFF74BFE002801D0FFF76DFA10BD49
:10132000004400401C0000202DE9F0410446006804
:10133000016921F44052E168114301612168C868E4
:1013400049F20C6290432369A268E5691A43636914
:101350002B431A430243CA602168486920F4407253
:10136000A06910434861E1696425B1F5004F9748D1
:10137000974A21684FF032083FD0914201D0814214
:101380007CD1FFF731FC00EBC00101EB001061687C
:101390008900B0FBF1F6FFF727FC00EBC00101EB81
:1013A000001061688900B0FBF1F0B0FBF5F06FF060
:1013B0001801484306EB800108EB0110B0FBF5F083
:1013C00000F0F006FFF710FC00EBC00101EB00108D
:1013D00061688900B0FBF1F0B0FBF5F006EB001698
:1013E000FFF702FC00EBC00101EB0010616889000F
:1013F000B0FBF1F7FFF7F8FBD2E0914201D0814258
:101400003DD1FFF7F1FB00EBC00101EB001061687B
:101410004900B0FBF1F0B0FBF5F00601FFF7E4FB8B
:1014200000EBC00101EB001061684900B0FBF1F76F
:10143000FFF7DAFB00EBC00101EB00106168490027
:10144000B0FBF1F0B0FBF5F06FF01801484307EB8B
:10145000800108EBC100B0FBF5F000F0F80006EBEE
:101460004006FFF7C1FB00EBC00101EB0010616813
:101470004900B0FBF1F7FFF7B7FB3CE055E0FFF7A1
:10148000A3FB00EBC00101EB001061684900B0FB59
:10149000F1F0B0FBF5F00601FFF796FB00EBC001A1
:1014A00001EB001061684900B0FBF1F7FFF78CFB1E
:1014B00000EBC00101EB001061684900B0FBF1F0E6
:1014C000B0FBF5F06FF01801484307EB800108EB23
:1014D000C100B0FBF5F000F0F80006EB4006FFF7A6
:1014E00073FB00EBC00101EB001061684900B0FB29
:1014F000F1F7FFF769FB00EBC00101EB0010616839
:101500004900B0FBF1F0B0FBF5F06FF01801484373
:1015100007EB800108EBC100B0FBF5F000F007001D
:10152000216830448860BDE8F081FFF74DFB00EB97
:10153000C00101EB001061688900B0FBF1F6FFF714
:1015400043FB00EBC00101EB001061688900B0FBB8
:10155000F1F0B0FBF5F06FF01801484306EB8001A5
:1015600008EB0110B0FBF5F000F0F006FFF72CFBE4
:1015700000EBC00101EB001061688900B0FBF1F0E5
:10158000B0FBF5F006EB0016FFF71EFB00EBC00109
:1015900001EB001061688900B0FBF1F7FFF714FB65
:1015A00000EBC00101EB001061688900B0FBF1F0B5
:1015B000B0FBF5F06FF01801484307EB800108EB32
:1015C0000110B0FBF5F000F00F00A9E70014014096
:1015D000001001402DE9F041984617460E4604469A
:1015E000069D1DE0681C1BD02DB1FFF7D7F9A0EBBD
:1015F0000800A84214D92068C16821F4D071C160E4
:101600002068416921F001014161202084F83900FE
:1016100084F83A00002084F838000320BDE8F08107
:101620002068006836EA000004D00020B842D9D013
:101630000020F3E70120F9E7FEE70000014A024934
:1016400000F013B88D1600081800002002E008C84A
:10165000121F08C1002AFAD170477047002001E02C
:1016600001C1121F002AFBD170472DE9F041164637
:101670000F460446002503E03946B047641C6D1C44
:1016800020780028F8D12846BDE8F08113B54FF640
:10169000FF73012269460248FFF7F2FC00981CBD67
:1016A0001C000020FFF780F9FFF786FDFFF722FE00
:1016B0000020FFF747F80A20FFF7F6FD10B110A051
:1016C000FFF7BCFF00240220FEF7EEFF10B112A0CE
:1016D000FFF7B4FF0220FEF79BFF10B114A0FFF745
:1016E000ADFF194D194E2988081B0A28FBDB0C4653
:1016F00020213046FFF748F9FFF732FDF3E70000FD
:1017000054696D653220696E6974204661696C6543
:10171000642E2E2E0D0A00000D0A4558544931330F
:1017200020696E6974204661696C65642E2E2E00F6
:101730000D0A4558544930696E6974204661696CD8
:1017400065642E2E2E0000001200002000000240D2
:101750000000000000000000010203040607080961
:1017600000000000010203048817000800000020A8
:101770001C0000004C160008A41700081C000020E4
:10178000440400005C160008010000001000000086
:101790000000000000000000000000000024F40031
:0417A0000000000045
:040000050800019559
:00000001FF
